:1012040032303A32363A3236003F065B4F666D7DF5
:09121400077F6F777C395E797168
:101193001023000000000000000000000000000019
:0E11A300000002210001C100C101023F000452
:1011EA00AE071FEE6013E4FCFDC3ED9478EC9400A7
:0911FA0050EE0DBD00010C80F067
:0112030022C8
:100E1B00EE7053EFB40800504D900E2BF82828734A
:100E2B00020E43020E49020E4F020E55020E5B02DA
:100E3B000E61020E67020E6DA29092028028A291A3
:100E4B0092028022A2929202801CA293920280169E
:100E5B00A29492028010A2959202800AA29692020C
:080E6B008004A2979202A2028A
:010E7300225C
:100F1F00EE704CEFB408005046900F2FF82828734E
:100F2F00020F47020F4C020F51020F56020F5B02C6
:100F3F000F60020F65020F6AA202929022A2029224
:100F4F009122A202929222A202929322A202929440
:100F5F0022A202929522A202929622A20292972296
:040D5B00AB07AA0632
:100D5F00E4F552F553120E1B5019EF25E02423F83A
:100D6F00E6FE08E664014E700AEF25E02423F8E45E
:100D7F00F608F6AF03AE02120E1B402CEF25E0244F
:100D8F0023F8E6FE08E64E701F7F0A1211EAAF0342
:100D9F00AE02120E1B4011755200755301EF25E084
:0C0DAF002423F87600087601AE52AF5302
:010DBB002215
:081263008F993099FDC2992218
:03002300020FB118
:100FB100C0E0C0F0C083C082C0D075D000C000C006
:100FC10001C002C003C004C005C006C007C298AF7B
:100FD1009912121DD007D006D005D004D003D0023B
:0F0FE100D001D000D0D0D082D083D0F0D0E03279
:10123500EDC454F0FDEF540F4DFFAE22EEC4333331
:071245003354804FF58022B5
:1011B200EC8DF0120A26900002E5578558F0120ACB
:0C11C20045900004E559855AF0020A45EA
:100E74008B528A538954AB55AA56A95712093EFF7F
:100E8400AB52AA53A954E5F08FF0120A26AB55AA27
:100E940056A957900002120969FFAB52AA53A954EC
:100EA400900002E5F08FF0120A45AB55AA56A957F7
:100EB400900004120969FFAB52AA53A9549000048C
:070EC400E5F08FF0020A4582
:10117400900006EC8DF0120A45900008E55785585A
:0F118400F0120A4590000AE559855AF0020A4513
:10110C00E553B55F1EE552B55E19E555B56114E5BD
:10111C0054B5600FE557B5630AE556B562057E0018
:07112C007F0122E4FEFF2217
:1011CE00E475F0011209A112093EC39418E5F0640A
:0C11DE008094804006E4F5F0120A2622FE
:10109400900002E475F0011209D990000212096966
:1010A400C3943CE5F064809480400C900002E4F525
:0810B400F0120A451211CE22D0
:1010BC00900004E475F0011209D99000041209693A
:1010CC00C3943CE5F064809480400C900004E4F5FB
:0810DC00F0120A4512109422E3
:100AE900E55945586011AE52AF537C007D0A120991
:100AF90008E4FDFC1212357F051211EAE559455843
:100B09006016AE52AF537C007D0A120908AE04AFDD
:100B1900057D017C001212357F051211EAE55B455E
:100B29005A6012AE54AF557C007D0A1209087D0245
:100B39007C001212357F051211EAE55B455A6016F1
:100B4900AE54AF557C007D0A120908AE04AF057D8D
:100B5900037C001212357F051211EAE55D455C60E0
:100B690012AE56AF577C007D0A1209087D047C003D
:100B79001212357F051211EAE55D455C6016AE5625
:100B8900AF577C007D0A120908AE04AF057D057CCC
:090B9900001212357F050211EA79
:100DBC008E528F5390120475F003EF120A72EE7577
:100DCC00F003A42583F583E493FF3395E0FEEF2431
:100DDC00D0FFEE34FFFE7C007D0A1208F6AA06ABAB
:100DEC0007AE52AF537D031208F6EF2401FFE43E29
:100DFC00FE74042FF58274123EF583E493FF339551
:0F0E0C00E0FEEF24D0FFEE34FFCF2BCF3AFE22D3
:100BA200E4F580759850758920758DFD758BFDD2A1
:100BB2008ED2AFD2ACFFFE120DBCC006C0077F01C1
:100BC2007E00120DBCC007C0067F027E00120DBC63
:100BD2008E598F5AD057D0587B007A007941D00570
:100BE200D0041211B2755700755801755900755A23
:100BF200017D017C001211748B558A5689577A0047
:100C02007933120E747B007A007933755700755868
:100C120001755900755A01121174E4FFFE7B007AC6
:100C22000079331210BC0FBF00010EEF640A4E7040
:0A0C3200EC754D00754E00754F4142
:010C3C002295
:10121D00EFC39400400EEFD394095008EF90120DD8
:08122D0093F58022E4F5802214
:100F6F0078527C007D007B007A0079417E007F0CF7
:100F7F001208D0785E7C007D007B007A0079337E8A
:100F8F00007F0C1208D012110CEF4E60057F01127A
:100F9F0012637B007A0079411210BC6322FF632138
:020FAF00FF221F
:10102E00AB4DAA4EA94F30011B7C00E5405401FD8B
:10103E00755700E5405402F558755900E5405404C3
:10104E00F55A8010755700755801755900755A017B
:08105E007D017C0012117422D7
:1010E400B20030000B754D00754E00754F3380090A
:1010F400754D00754E00754F4112102EA200B3922B
:08110400027F077E00020F1FAD
:10124C00B201753F0075400412102EA201B3920238
:07125C007F067E00020F1F58
:10115400E53FA2E713F53FE54013F540C39401E5ED
:101164003F648094805006753F0075400402102E41
:10113300E54025E0F540E53F33F53FD3E540940432
:10114300E53F648094804006753F007540010210BE
:011153002E6D
:10106600E53F7029E54024FE601124FE6016240346
:10107600701BAB4DAA4EA94F0211CEAB4DAA4EA97D
:0E1086004F021094AB4DAA4EA94F1210BC227F
:100C3D00E53F6003020CCEE54024FE602C24FE60EF
:100C4D00512403707CAB4DAA4EA94F74FFF5F012E1
:100C5D0009A1AB4DAA4EA94F12093EF47003E5F060
:100C6D00F4705E75F017020A26AB4DAA4EA94F908F
:100C7D00000274FFF5F01209D9900002120969F40F
:100C8D007003E5F0F4703AAB4DAA4EA94F900002F7
:100C9D008029AB4DAA4EA94F90000474FFF5F012B8
:100CAD0009D9900004120969FFAEF0BEFF13BFFF12
:100CBD0010AB4DAA4EA94F900004E475F03B120AFB
:020CCD004522BE
:100ECB00E4FFFE120D5BEF4E60031210E47F017E18
:100EDB0000120D5BEF4E600312124C7F027E00126C
:100EEB000D5BEF4E60031211547F037E00120D5BFE
:100EFB00EF4E60031211337F047E00120D5BEF4E39
:100F0B0060031210667F057E00120D5BEF4E6003CF
:040F1B00120C3D2255
:100FF000120BA27F0A1211EA120F6FE4F550F5519D
:10100000120ECB78527C007D00AB4DAA4EA94F7ECC
:10101000007F0C1208D0120AE90551E55170020553
:0E10200050C39421E5506480948040D480C574
:03000000020CCF20
:0C0CCF00787FE4F6D8FD758169020D16EF
:10080000E709F608DFFA8046E709F208DFFA803EDA
:1008100088828C83E709F0A3DFFA8032E309F608C7
:10082000DFFA8078E309F208DFFA807088828C832F
:10083000E309F0A3DFFA806489828A83E0A3F608E3
:10084000DFFA805889828A83E0A3F208DFFA804CBD
:1008500080D280FA80C680D4806980F28033801094
:1008600080A680EA809A80A880DA80E280CA8033FD
:1008700089828A83ECFAE493A3C8C582C8CCC58375
:10088000CCF0A3C8C582C8CCC583CCDFE9DEE78045
:100890000D89828A83E493A3F608DFF9ECFAA9F0C4
:1008A000EDFB2289828A83ECFAE0A3C8C582C8CC1A
:1008B000C583CCF0A3C8C582C8CCC583CCDFEADE33
:1008C000E880DB89828A83E493A3F208DFF980CC95
:1008D00088F0EF60010E4E60C388F0ED2402B4048E
:1008E0000050B9F582EB2402B4040050AF23234535
:0608F00082239008507302
:1008F600EF8DF0A4A8F0CF8CF0A428CE8DF0A42E16
:02090600FE22CF
:10090800C2D5EC30E709B2D5E4C39DFDE49CFCEE0A
:1009180030E715B2D5E4C39FFFE49EFE120A7EC3FA
:10092800E49DFDE49CFC8003120A7E30D507C3E4F5
:060938009FFFE49EFE2279
:10093E00BB010A89828A83E0F5F0A3E02250068784
:10094E00F009E71922BBFE07E3F5F009E319228946
:0B095E00828A83E493F5F07401932279
:10096900BB0110E58229F582E5833AF583E0F5F0CC
:10097900A3E0225009E92582F886F008E622BBFEA9
:100989000AE92582F8E2F5F008E222E5832AF583EF
:08099900E993F5F0A3E99322B4
:1009A100BB010789828A83020AD3500B09C5F0274C
:1009B100F7C5F01937F722BBFE0D09F8E325F0F36F
:1009C100C5F019E338F322F889828A8374019325EB
:0809D100F0C5F0F8E4933822B0
:1009D900BB010DC58229C582C5833AC583020AD3E5
:1009E9005011C58229F808E5F026F618F5F0E582D8
:1009F90036F622BBFE11C58229F808E225F0F5F08A
:100A0900F218E23582F222F8E58229F582E5832A95
:0D0A1900F58374019325F0F5F0E493382285
:100A2600BB010A89828A83F0E5F0A3F0225006F71B
:0F0A360009A7F01922BBFE06F3E5F009F3192218
:100A4500F8BB0111E58229F582E5833AF583E8F0E3
:100A5500E5F0A3F0225009E92582C8F608A6F022A0
:0D0A6500BBFE09E92582C8F2E5F008F22287
:0C0A7200A42582F582E5F03583F583228F
:100CDB00020FF0E493A3F8E493A34003F68001F230
:100CEB0008DFF48029E493A3F85407240CC8C3331A
:100CFB00C4540F4420C8834004F456800146F6DFE9
:100D0B00E4800B0102040810204080901193E47ED4
:100D1B00019360BCA3FF543F30E509541FFEE493DD
:100D2B00A360010ECF54C025E060A840B8E493A3A4
:100D3B00FAE493A3F8E493A3C8C582C8CAC583CACF
:100D4B00F0A3C8C582C8CAC583CADFE9DEE780BE87
:0111B100003D
:100A7E00BC000BBE0029EF8DF084FFADF022E4CC5C
:100A8E00F875F008EF2FFFEE33FEEC33FCEE9DEC25
:100A9E00984005FCEE9DFE0FD5F0E9E4CEFD22ED6B
:100AAE00F8F5F0EE8420D21CFEADF075F008EF2FB5
:100ABE00FFED33FD4007985006D5F0F222C398FDA6
:050ACE000FD5F0EA2243
:100AD300C5F0F8A3E028F0C5F0F8E58215827002AE
:060AE3001583E038F0224B
:00000001FF
