:100800003F065B4F666D7D077F6F777C395E797140
:10081000F88CF95BFA15FA67FB04FB90FC0CFC44BE
:10082000FCACFD09FD34FD82FDC8FE06FE22FE562D
:10083000FE85FE9AFEC1FEE4FF03FFFF00040007F1
:1008400000090009000B000800090007FFFF00076E
:100850000007000600050005000600070008000963
:100860000004FFFF0004000700070008000900085B
:1008700000080009000A000BFFFF00090009000C36
:10088000000B000B00040009000800090007FFFF2F
:1008900000FF000000000000000000000000FFFF5B
:1008A0000009000C000E000D000C0010000F000DE0
:1008B000000C000E000D000B000D000900090009DE
:1008C000000C000E000D000C0010001200120011B0
:1008D000000F00110010000F0008000E000CFFFFB9
:1008E00000FF000000000000000000000000000009
:1008F00000000000000000000000000000000000F8
:100900000000FFFF000700080009000B00090008B5
:10091000000700070009000C000E000D000B000985
:100920000008FFFF00FF00000000000000000000C2
:1009300000000000000000000000000000000000B7
:1009400000000000000000000000000000000000A7
:100950000000000000000000000000000000000097
:10096000000000000000000100010001000200047E
:100970000002000400020004000200020002000164
:100980000001000200020002000100010005000158
:10099000000200020001000100020002000200014A
:1009A0000001000500010002000200010001000238
:1009B00000020002000100010004000600FF000028
:1009C0000000000000000000000000000000000027
:1009D0000000000000000000000000000000000017
:1009E0000000000000000000000000000000000007
:1009F00000000000000000000000000000000000F7
:100A000000000000000000000000000000000000E6
:100A100000000000000000000000000000000000D6
:100A200000000000000000000000000000000001C5
:100A300000010002000100010002000100030003A8
:100A4000000100010001000100020001000300029A
:100A5000000100010001000100020001000200018C
:100A60000002000100010001000100020001000479
:100A7000000600FF00000000000000000000000071
:100A80000000000000000000000000000000000066
:100A90000000000000000000000000000000000056
:100AA0000000000000000000000000000000000046
:100AB0000000000000000000000000000000000036
:100AC0000000000000000000000000000000000026
:100AD0000000000000000000000000000000000016
:100AE0000000000000000000000000000000000006
:100AF00000000000000000010001000100020004ED
:100B000000010001000400010001000200010002D8
:100B1000000100020004000600FF000000000000C9
:100B200000000000000000000000000000000000C5
:100B300000000000000000000000000000000000B5
:100B400000000000000000000000000000000000A5
:100B50000000000000000000000000000000000095
:100B60000000000000000000000000000000000085
:100B70000000000000000000000000000000000075
:100B80000000000000000000000000000000000065
:100B90000000000000000000000000000000000055
:100BA0000000000000000000000000000000000045
:0E0BB000000000000000000000000000000037
:10104D00100800000000000000000000000000007B
:0E105D000000C100C101021A000002180000CC
:080FE3008F248E238D228C2146
:100FEB00782174FF120BF6EC4D4E4F6013E4FAFBB5
:100FFB00C3EB9478EA940050E70BBB00010A80F036
:01100B0022C2
:10102E008F828E83E5821582AE83700215834E60A9
:0F103E000D7FC87E007D007C00120FE380E6224C
:100EFB00EE7053EFB40800504D900F0BF828287389
:100F0B00020F23020F29020F2F020F35020F3B0294
:100F1B000F41020F47020F4DA29092028028A2911F
:100F2B0092028022A2929202801CA29392028016BD
:100F3B00A29492028010A2959202800AA29692022B
:080F4B008004A2979202A202A9
:010F5300227B
:100F5400EE704CEFB408005046900F64F8282873E4
:100F6400020F7C020F81020F86020F8B020F900288
:100F74000F95020F9A020F9FA203929022A203924E
:100F84009122A203929222A203929322A203929408
:100F940022A203929522A203929622A2039297225E
:040E93008E1C8F1D05
:100E9700E4F51EF51F120EFB501BAF1DEF25E024D6
:100EA70008F8E6FC08E664014C700AEF25E0240820
:100EB700F8E4F608F6AF1DAE1C120EFB4031E51D37
:100EC70025E02408F8E6FE08E64E70237F0AFEFDBB
:100ED700FC120FE3AF1DAE1C120EFB4012751E0075
:100EE700751F01E51D25E02408F87600087601AE98
:030EF7001EAF1F0C
:010EFA0022D5
:0810A0008F993099FDC29922DD
:03002300020FA425
:100FA400C0E0C0F0C083C082C0D075D000C000C013
:100FB40001C002C003C004C005C006C007C298AF88
:100FC400991210B0D007D006D005D004D003D002B7
:0F0FD400D001D000D0D0D082D083D0F0D0E03286
:10106C00E4F580759850758921758DFD758BFDD2D1
:0B107C008EC28CD2AFD2AC75A8F3225C
:0B109500200005E4F51AF51BD2002234
:0E108700C200E4F51AF51BD203FFFE020F545F
:03000B00020D9F44
:100D9F00C0E0C0F0C083C082C0D075D000C004C016
:100DAF0005C006C007E51B25E0FFE51A33FE9008D6
:100DBF003A75F064E519120C14E51875F064A42562
:100DCF0083F583E5822FF582E5833EF583E493FE79
:100DDF00740193FFF47002EEF46021EF25E0FFEE53
:100DEF0033FE74102FF58274083EF583E493FC7480
:100DFF000193FDECF58CAF058F8AB297D007D00623
:0F0E0F00D005D004D0D0D082D083D0F0D0E03244
:03000300020C7577
:100C7500C0E0C0F0C083C082C0D075D000C000C045
:100C850004C005C006C0077F017E00120EFB4003AD
:100C95001210877F027E00120EFB40031210957F13
:100CA500037E00120EFB40247F037E00120EFBB371
:100CB50040F6E5192402FFE43518FE7C007D031299
:100CC5000BBE8C188D19751A00751B007F047E00EC
:100CD500120EFB40247F047E00120EFBB340F6E5A6
:100CE500192401FFE43518FE7C007D03120BBE8C30
:100CF500188D19751A00751B00D007D006D005D0C0
:0E0D050004D000D0D0D082D083D0F0D0E03225
:0710B000BF0103121095229D
:100E1E00E51B25E0FFE51A33FE90083A75F064E510
:100E2E0019120C14E51875F064A42583F583E58278
:100E3E002FF582E5833EF583740193F47002E493FB
:100E4E007004F51AF51BD28CE51B25E0FFE51A336D
:100E5E00FE90096675F0C8E519120C14E51875F0C8
:100E6E00C8A42583F583E5822FF582E5833EF583BD
:100E7E00E493FE740193FF12102EC28C051BE51B2A
:050E8E007002051A22AC
:10100C00A200B39203E4FFFE120F5474002519F5ED
:10101C008274083518F583E493F580300003120EC2
:02102C001E2282
:0810A80012106C12100C80FB09
:03000000020D13DB
:0C0D1300787FE4F6D8FD758124020D5AAB
:100BBE00C2D5EC30E709B2D5E4C39DFDE49CFCEE52
:100BCE0030E715B2D5E4C39FFFE49EFE120C20C39E
:100BDE00E49DFDE49CFC8003120C2030D507C3E499
:060BEE009FFFE49EFE22C1
:100BF4007401FF3395E0FEFDFC080808E6CF2FF6EC
:100C040018E6CE3EF618E6CD3DF618E6CC3CF622C4
:0C0C1400A42582F582E5F03583F58322EB
:100D1F000210A8E493A3F8E493A34003F68001F232
:100D2F0008DFF48029E493A3F85407240CC8C333D5
:100D3F00C4540F4420C8834004F456800146F6DFA4
:100D4F00E4800B010204081020408090104DE47ED7
:100D5F00019360BCA3FF543F30E509541FFEE49399
:100D6F00A360010ECF54C025E060A840B8E493A360
:100D7F00FAE493A3F8E493A3C8C582C8CAC583CA8B
:100D8F00F0A3C8C582C8CAC583CADFE9DEE780BE43
:01106B000084
:100C2000BC000BBE0029EF8DF084FFADF022E4CCB8
:100C3000F875F008EF2FFFEE33FEEC33FCEE9DEC81
:100C4000984005FCEE9DFE0FD5F0E9E4CEFD22EDC7
:100C5000F8F5F0EE8420D21CFEADF075F008EF2F11
:100C6000FFED33FD4007985006D5F0F222C398FD02
:050C70000FD5F0EA229F
:00000001FF
